{
  "_format": "hh-sol-artifact-1",
  "contractName": "RemittanceToken",
  "sourceName": "contracts/RemittanceToken.sol",
  "abi": [
    {
      "inputs": [],
      "stateMutability": "nonpayable",
      "type": "constructor"
    },
    {
      "inputs": [
        {
          "internalType": "address",
          "name": "spender",
          "type": "address"
        },
        {
          "internalType": "uint256",
          "name": "allowance",
          "type": "uint256"
        },
        {
          "internalType": "uint256",
          "name": "needed",
          "type": "uint256"
        }
      ],
      "name": "ERC20InsufficientAllowance",
      "type": "error"
    },
    {
      "inputs": [
        {
          "internalType": "address",
          "name": "sender",
          "type": "address"
        },
        {
          "internalType": "uint256",
          "name": "balance",
          "type": "uint256"
        },
        {
          "internalType": "uint256",
          "name": "needed",
          "type": "uint256"
        }
      ],
      "name": "ERC20InsufficientBalance",
      "type": "error"
    },
    {
      "inputs": [
        {
          "internalType": "address",
          "name": "approver",
          "type": "address"
        }
      ],
      "name": "ERC20InvalidApprover",
      "type": "error"
    },
    {
      "inputs": [
        {
          "internalType": "address",
          "name": "receiver",
          "type": "address"
        }
      ],
      "name": "ERC20InvalidReceiver",
      "type": "error"
    },
    {
      "inputs": [
        {
          "internalType": "address",
          "name": "sender",
          "type": "address"
        }
      ],
      "name": "ERC20InvalidSender",
      "type": "error"
    },
    {
      "inputs": [
        {
          "internalType": "address",
          "name": "spender",
          "type": "address"
        }
      ],
      "name": "ERC20InvalidSpender",
      "type": "error"
    },
    {
      "inputs": [
        {
          "internalType": "address",
          "name": "owner",
          "type": "address"
        }
      ],
      "name": "OwnableInvalidOwner",
      "type": "error"
    },
    {
      "inputs": [
        {
          "internalType": "address",
          "name": "account",
          "type": "address"
        }
      ],
      "name": "OwnableUnauthorizedAccount",
      "type": "error"
    },
    {
      "anonymous": false,
      "inputs": [
        {
          "indexed": true,
          "internalType": "address",
          "name": "owner",
          "type": "address"
        },
        {
          "indexed": true,
          "internalType": "address",
          "name": "spender",
          "type": "address"
        },
        {
          "indexed": false,
          "internalType": "uint256",
          "name": "value",
          "type": "uint256"
        }
      ],
      "name": "Approval",
      "type": "event"
    },
    {
      "anonymous": false,
      "inputs": [
        {
          "indexed": true,
          "internalType": "address",
          "name": "previousOwner",
          "type": "address"
        },
        {
          "indexed": true,
          "internalType": "address",
          "name": "newOwner",
          "type": "address"
        }
      ],
      "name": "OwnershipTransferred",
      "type": "event"
    },
    {
      "anonymous": false,
      "inputs": [
        {
          "indexed": true,
          "internalType": "address",
          "name": "user",
          "type": "address"
        },
        {
          "indexed": false,
          "internalType": "uint256",
          "name": "tokenAmount",
          "type": "uint256"
        }
      ],
      "name": "TokensBurned",
      "type": "event"
    },
    {
      "anonymous": false,
      "inputs": [
        {
          "indexed": true,
          "internalType": "address",
          "name": "user",
          "type": "address"
        },
        {
          "indexed": false,
          "internalType": "uint256",
          "name": "tokenAmount",
          "type": "uint256"
        }
      ],
      "name": "TokensMinted",
      "type": "event"
    },
    {
      "anonymous": false,
      "inputs": [
        {
          "indexed": true,
          "internalType": "address",
          "name": "from",
          "type": "address"
        },
        {
          "indexed": true,
          "internalType": "address",
          "name": "to",
          "type": "address"
        },
        {
          "indexed": false,
          "internalType": "uint256",
          "name": "amount",
          "type": "uint256"
        }
      ],
      "name": "TokensSent",
      "type": "event"
    },
    {
      "anonymous": false,
      "inputs": [
        {
          "indexed": true,
          "internalType": "address",
          "name": "from",
          "type": "address"
        },
        {
          "indexed": true,
          "internalType": "address",
          "name": "to",
          "type": "address"
        },
        {
          "indexed": false,
          "internalType": "uint256",
          "name": "value",
          "type": "uint256"
        }
      ],
      "name": "Transfer",
      "type": "event"
    },
    {
      "inputs": [
        {
          "internalType": "address",
          "name": "owner",
          "type": "address"
        },
        {
          "internalType": "address",
          "name": "spender",
          "type": "address"
        }
      ],
      "name": "allowance",
      "outputs": [
        {
          "internalType": "uint256",
          "name": "",
          "type": "uint256"
        }
      ],
      "stateMutability": "view",
      "type": "function"
    },
    {
      "inputs": [
        {
          "internalType": "address",
          "name": "spender",
          "type": "address"
        },
        {
          "internalType": "uint256",
          "name": "value",
          "type": "uint256"
        }
      ],
      "name": "approve",
      "outputs": [
        {
          "internalType": "bool",
          "name": "",
          "type": "bool"
        }
      ],
      "stateMutability": "nonpayable",
      "type": "function"
    },
    {
      "inputs": [
        {
          "internalType": "address",
          "name": "account",
          "type": "address"
        }
      ],
      "name": "balanceOf",
      "outputs": [
        {
          "internalType": "uint256",
          "name": "",
          "type": "uint256"
        }
      ],
      "stateMutability": "view",
      "type": "function"
    },
    {
      "inputs": [
        {
          "internalType": "address",
          "name": "user",
          "type": "address"
        },
        {
          "internalType": "uint256",
          "name": "tokenAmount",
          "type": "uint256"
        }
      ],
      "name": "burnTokensForUSD",
      "outputs": [],
      "stateMutability": "nonpayable",
      "type": "function"
    },
    {
      "inputs": [],
      "name": "decimals",
      "outputs": [
        {
          "internalType": "uint8",
          "name": "",
          "type": "uint8"
        }
      ],
      "stateMutability": "view",
      "type": "function"
    },
    {
      "inputs": [
        {
          "internalType": "address",
          "name": "user",
          "type": "address"
        },
        {
          "internalType": "uint256",
          "name": "balance",
          "type": "uint256"
        }
      ],
      "name": "mintForUser",
      "outputs": [],
      "stateMutability": "nonpayable",
      "type": "function"
    },
    {
      "inputs": [],
      "name": "name",
      "outputs": [
        {
          "internalType": "string",
          "name": "",
          "type": "string"
        }
      ],
      "stateMutability": "view",
      "type": "function"
    },
    {
      "inputs": [],
      "name": "owner",
      "outputs": [
        {
          "internalType": "address",
          "name": "",
          "type": "address"
        }
      ],
      "stateMutability": "view",
      "type": "function"
    },
    {
      "inputs": [],
      "name": "publicMintingEnabled",
      "outputs": [
        {
          "internalType": "bool",
          "name": "",
          "type": "bool"
        }
      ],
      "stateMutability": "view",
      "type": "function"
    },
    {
      "inputs": [],
      "name": "renounceOwnership",
      "outputs": [],
      "stateMutability": "nonpayable",
      "type": "function"
    },
    {
      "inputs": [
        {
          "internalType": "address",
          "name": "recipient",
          "type": "address"
        },
        {
          "internalType": "uint256",
          "name": "amount",
          "type": "uint256"
        }
      ],
      "name": "sendTokens",
      "outputs": [
        {
          "internalType": "bool",
          "name": "",
          "type": "bool"
        }
      ],
      "stateMutability": "nonpayable",
      "type": "function"
    },
    {
      "inputs": [],
      "name": "symbol",
      "outputs": [
        {
          "internalType": "string",
          "name": "",
          "type": "string"
        }
      ],
      "stateMutability": "view",
      "type": "function"
    },
    {
      "inputs": [
        {
          "internalType": "bool",
          "name": "enabled",
          "type": "bool"
        }
      ],
      "name": "togglePublicMinting",
      "outputs": [],
      "stateMutability": "nonpayable",
      "type": "function"
    },
    {
      "inputs": [],
      "name": "totalSupply",
      "outputs": [
        {
          "internalType": "uint256",
          "name": "",
          "type": "uint256"
        }
      ],
      "stateMutability": "view",
      "type": "function"
    },
    {
      "inputs": [
        {
          "internalType": "address",
          "name": "to",
          "type": "address"
        },
        {
          "internalType": "uint256",
          "name": "value",
          "type": "uint256"
        }
      ],
      "name": "transfer",
      "outputs": [
        {
          "internalType": "bool",
          "name": "",
          "type": "bool"
        }
      ],
      "stateMutability": "nonpayable",
      "type": "function"
    },
    {
      "inputs": [
        {
          "internalType": "address",
          "name": "from",
          "type": "address"
        },
        {
          "internalType": "address",
          "name": "to",
          "type": "address"
        },
        {
          "internalType": "uint256",
          "name": "value",
          "type": "uint256"
        }
      ],
      "name": "transferFrom",
      "outputs": [
        {
          "internalType": "bool",
          "name": "",
          "type": "bool"
        }
      ],
      "stateMutability": "nonpayable",
      "type": "function"
    },
    {
      "inputs": [
        {
          "internalType": "address",
          "name": "newOwner",
          "type": "address"
        }
      ],
      "name": "transferOwnership",
      "outputs": [],
      "stateMutability": "nonpayable",
      "type": "function"
    },
    {
      "inputs": [
        {
          "internalType": "address",
          "name": "from",
          "type": "address"
        },
        {
          "internalType": "address",
          "name": "to",
          "type": "address"
        },
        {
          "internalType": "uint256",
          "name": "amount",
          "type": "uint256"
        }
      ],
      "name": "transferTokensFromBackend",
      "outputs": [],
      "stateMutability": "nonpayable",
      "type": "function"
    }
  ],
  "bytecode": "0x608060405234801561001057600080fd5b50336040518060400160405280600f81526020017f52656d697474616e6365546f6b656e00000000000000000000000000000000008152506040518060400160405280600381526020017f524d540000000000000000000000000000000000000000000000000000000000815250816003908161008d9190610458565b50806004908161009d9190610458565b505050600073ffffffffffffffffffffffffffffffffffffffff168173ffffffffffffffffffffffffffffffffffffffff16036101125760006040517f1e4fbdf7000000000000000000000000000000000000000000000000000000008152600401610109919061056b565b60405180910390fd5b6101218161014260201b60201c565b506000600560146101000a81548160ff021916908315150217905550610586565b6000600560009054906101000a900473ffffffffffffffffffffffffffffffffffffffff16905081600560006101000a81548173ffffffffffffffffffffffffffffffffffffffff021916908373ffffffffffffffffffffffffffffffffffffffff1602179055508173ffffffffffffffffffffffffffffffffffffffff168173ffffffffffffffffffffffffffffffffffffffff167f8be0079c531659141344cd1fd0a4f28419497f9722a3daafe3b4186f6b6457e060405160405180910390a35050565b600081519050919050565b7f4e487b7100000000000000000000000000000000000000000000000000000000600052604160045260246000fd5b7f4e487b7100000000000000000000000000000000000000000000000000000000600052602260045260246000fd5b6000600282049050600182168061028957607f821691505b60208210810361029c5761029b610242565b5b50919050565b60008190508160005260206000209050919050565b60006020601f8301049050919050565b600082821b905092915050565b6000600883026103047fffffffffffffffffffffffffffffffffffffffffffffffffffffffffffffffff826102c7565b61030e86836102c7565b95508019841693508086168417925050509392505050565b6000819050919050565b6000819050919050565b600061035561035061034b84610326565b610330565b610326565b9050919050565b6000819050919050565b61036f8361033a565b61038361037b8261035c565b8484546102d4565b825550505050565b600090565b61039861038b565b6103a3818484610366565b505050565b5b818110156103c7576103bc600082610390565b6001810190506103a9565b5050565b601f82111561040c576103dd816102a2565b6103e6846102b7565b810160208510156103f5578190505b610409610401856102b7565b8301826103a8565b50505b505050565b600082821c905092915050565b600061042f60001984600802610411565b1980831691505092915050565b6000610448838361041e565b9150826002028217905092915050565b61046182610208565b67ffffffffffffffff81111561047a57610479610213565b5b6104848254610271565b61048f8282856103cb565b600060209050601f8311600181146104c257600084156104b0578287015190505b6104ba858261043c565b865550610522565b601f1984166104d0866102a2565b60005b828110156104f8578489015182556001820191506020850194506020810190506104d3565b868310156105155784890151610511601f89168261041e565b8355505b6001600288020188555050505b505050505050565b600073ffffffffffffffffffffffffffffffffffffffff82169050919050565b60006105558261052a565b9050919050565b6105658161054a565b82525050565b6000602082019050610580600083018461055c565b92915050565b611ed2806105956000396000f3fe608060405234801561001057600080fd5b50600436106101155760003560e01c8063715018a6116100a2578063a9059cbb11610071578063a9059cbb146102d0578063d0dbc83314610300578063dd62ed3e1461031c578063f2fde38b1461034c578063fd62e8a31461036857610115565b8063715018a61461026c5780638da5cb5b146102765780638dec9f7a1461029457806395d89b41146102b257610115565b806318160ddd116100e957806318160ddd146101b457806323b872dd146101d257806328b0d2e414610202578063313ce5671461021e57806370a082311461023c57610115565b80626ee7081461011a57806305ab421d1461013657806306fdde0314610166578063095ea7b314610184575b600080fd5b610134600480360381019061012f9190611590565b610384565b005b610150600480360381019061014b91906115e3565b61052a565b60405161015d919061163e565b60405180910390f35b61016e6106ac565b60405161017b91906116e9565b60405180910390f35b61019e600480360381019061019991906115e3565b61073e565b6040516101ab919061163e565b60405180910390f35b6101bc610761565b6040516101c9919061171a565b60405180910390f35b6101ec60048036038101906101e79190611590565b61076b565b6040516101f9919061163e565b60405180910390f35b61021c60048036038101906102179190611761565b61079a565b005b6102266107bf565b60405161023391906117aa565b60405180910390f35b610256600480360381019061025191906117c5565b6107c8565b604051610263919061171a565b60405180910390f35b610274610810565b005b61027e610824565b60405161028b9190611801565b60405180910390f35b61029c61084e565b6040516102a9919061163e565b60405180910390f35b6102ba610861565b6040516102c791906116e9565b60405180910390f35b6102ea60048036038101906102e591906115e3565b6108f3565b6040516102f7919061163e565b60405180910390f35b61031a600480360381019061031591906115e3565b610916565b005b6103366004803603810190610331919061181c565b610a65565b604051610343919061171a565b60405180910390f35b610366600480360381019061036191906117c5565b610aec565b005b610382600480360381019061037d91906115e3565b610b72565b005b61038c610d07565b600073ffffffffffffffffffffffffffffffffffffffff168373ffffffffffffffffffffffffffffffffffffffff16036103fb576040517f08c379a00000000000000000000000000000000000000000000000000000000081526004016103f2906118a8565b60405180910390fd5b600073ffffffffffffffffffffffffffffffffffffffff168273ffffffffffffffffffffffffffffffffffffffff160361046a576040517f08c379a000000000000000000000000000000000000000000000000000000000815260040161046190611914565b60405180910390fd5b80610474846107c8565b10156104b5576040517f08c379a00000000000000000000000000000000000000000000000000000000081526004016104ac90611980565b60405180910390fd5b6104c0838383610d8e565b8173ffffffffffffffffffffffffffffffffffffffff168373ffffffffffffffffffffffffffffffffffffffff167fe607861baff3d292b19188affe88c1a72bdcb69d3015f18bb2cd0bf5349cc3e18360405161051d919061171a565b60405180910390a3505050565b60008073ffffffffffffffffffffffffffffffffffffffff168373ffffffffffffffffffffffffffffffffffffffff160361059a576040517f08c379a0000000000000000000000000000000000000000000000000000000008152600401610591906119ec565b60405180910390fd5b600082116105dd576040517f08c379a00000000000000000000000000000000000000000000000000000000081526004016105d490611a58565b60405180910390fd5b816105e7336107c8565b1015610628576040517f08c379a000000000000000000000000000000000000000000000000000000000815260040161061f90611980565b60405180910390fd5b600061063484846108f3565b905080156106a2578373ffffffffffffffffffffffffffffffffffffffff163373ffffffffffffffffffffffffffffffffffffffff167fe607861baff3d292b19188affe88c1a72bdcb69d3015f18bb2cd0bf5349cc3e185604051610699919061171a565b60405180910390a35b8091505092915050565b6060600380546106bb90611aa7565b80601f01602080910402602001604051908101604052809291908181526020018280546106e790611aa7565b80156107345780601f1061070957610100808354040283529160200191610734565b820191906000526020600020905b81548152906001019060200180831161071757829003601f168201915b5050505050905090565b600080610749610e82565b9050610756818585610e8a565b600191505092915050565b6000600254905090565b600080610776610e82565b9050610783858285610e9c565b61078e858585610d8e565b60019150509392505050565b6107a2610d07565b80600560146101000a81548160ff02191690831515021790555050565b60006012905090565b60008060008373ffffffffffffffffffffffffffffffffffffffff1673ffffffffffffffffffffffffffffffffffffffff168152602001908152602001600020549050919050565b610818610d07565b6108226000610f31565b565b6000600560009054906101000a900473ffffffffffffffffffffffffffffffffffffffff16905090565b600560149054906101000a900460ff1681565b60606004805461087090611aa7565b80601f016020809104026020016040519081016040528092919081815260200182805461089c90611aa7565b80156108e95780601f106108be576101008083540402835291602001916108e9565b820191906000526020600020905b8154815290600101906020018083116108cc57829003601f168201915b5050505050905090565b6000806108fe610e82565b905061090b818585610d8e565b600191505092915050565b60008111610959576040517f08c379a000000000000000000000000000000000000000000000000000000000815260040161095090611a58565b60405180910390fd5b610961610824565b73ffffffffffffffffffffffffffffffffffffffff163373ffffffffffffffffffffffffffffffffffffffff1614806109a65750600560149054906101000a900460ff165b6109e5576040517f08c379a00000000000000000000000000000000000000000000000000000000081526004016109dc90611b24565b60405180910390fd5b60006109ef6107bf565b600a6109fb9190611ca6565b82610a069190611cf1565b9050610a128382610ff7565b8273ffffffffffffffffffffffffffffffffffffffff167f3f2c9d57c068687834f0de942a9babb9e5acab57d516d3480a3c16ee165a427382604051610a58919061171a565b60405180910390a2505050565b6000600160008473ffffffffffffffffffffffffffffffffffffffff1673ffffffffffffffffffffffffffffffffffffffff16815260200190815260200160002060008373ffffffffffffffffffffffffffffffffffffffff1673ffffffffffffffffffffffffffffffffffffffff16815260200190815260200160002054905092915050565b610af4610d07565b600073ffffffffffffffffffffffffffffffffffffffff168173ffffffffffffffffffffffffffffffffffffffff1603610b665760006040517f1e4fbdf7000000000000000000000000000000000000000000000000000000008152600401610b5d9190611801565b60405180910390fd5b610b6f81610f31565b50565b60008111610bb5576040517f08c379a0000000000000000000000000000000000000000000000000000000008152600401610bac90611a58565b60405180910390fd5b80610bbf836107c8565b1015610c00576040517f08c379a0000000000000000000000000000000000000000000000000000000008152600401610bf790611d7f565b60405180910390fd5b610c08610824565b73ffffffffffffffffffffffffffffffffffffffff163373ffffffffffffffffffffffffffffffffffffffff161480610c6c57508173ffffffffffffffffffffffffffffffffffffffff163373ffffffffffffffffffffffffffffffffffffffff16145b610cab576040517f08c379a0000000000000000000000000000000000000000000000000000000008152600401610ca290611e11565b60405180910390fd5b610cb58282611079565b8173ffffffffffffffffffffffffffffffffffffffff167ffd38818f5291bf0bb3a2a48aadc06ba8757865d1dabd804585338aab3009dcb682604051610cfb919061171a565b60405180910390a25050565b610d0f610e82565b73ffffffffffffffffffffffffffffffffffffffff16610d2d610824565b73ffffffffffffffffffffffffffffffffffffffff1614610d8c57610d50610e82565b6040517f118cdaa7000000000000000000000000000000000000000000000000000000008152600401610d839190611801565b60405180910390fd5b565b600073ffffffffffffffffffffffffffffffffffffffff168373ffffffffffffffffffffffffffffffffffffffff1603610e005760006040517f96c6fd1e000000000000000000000000000000000000000000000000000000008152600401610df79190611801565b60405180910390fd5b600073ffffffffffffffffffffffffffffffffffffffff168273ffffffffffffffffffffffffffffffffffffffff1603610e725760006040517fec442f05000000000000000000000000000000000000000000000000000000008152600401610e699190611801565b60405180910390fd5b610e7d8383836110fb565b505050565b600033905090565b610e978383836001611320565b505050565b6000610ea88484610a65565b90507fffffffffffffffffffffffffffffffffffffffffffffffffffffffffffffffff811015610f2b5781811015610f1b578281836040517ffb8f41b2000000000000000000000000000000000000000000000000000000008152600401610f1293929190611e31565b60405180910390fd5b610f2a84848484036000611320565b5b50505050565b6000600560009054906101000a900473ffffffffffffffffffffffffffffffffffffffff16905081600560006101000a81548173ffffffffffffffffffffffffffffffffffffffff021916908373ffffffffffffffffffffffffffffffffffffffff1602179055508173ffffffffffffffffffffffffffffffffffffffff168173ffffffffffffffffffffffffffffffffffffffff167f8be0079c531659141344cd1fd0a4f28419497f9722a3daafe3b4186f6b6457e060405160405180910390a35050565b600073ffffffffffffffffffffffffffffffffffffffff168273ffffffffffffffffffffffffffffffffffffffff16036110695760006040517fec442f050000000000000000000000000000000000000000000000000000000081526004016110609190611801565b60405180910390fd5b611075600083836110fb565b5050565b600073ffffffffffffffffffffffffffffffffffffffff168273ffffffffffffffffffffffffffffffffffffffff16036110eb5760006040517f96c6fd1e0000000000000000000000000000000000000000000000000000000081526004016110e29190611801565b60405180910390fd5b6110f7826000836110fb565b5050565b600073ffffffffffffffffffffffffffffffffffffffff168373ffffffffffffffffffffffffffffffffffffffff160361114d5780600260008282546111419190611e68565b92505081905550611220565b60008060008573ffffffffffffffffffffffffffffffffffffffff1673ffffffffffffffffffffffffffffffffffffffff168152602001908152602001600020549050818110156111d9578381836040517fe450d38c0000000000000000000000000000000000000000000000000000000081526004016111d093929190611e31565b60405180910390fd5b8181036000808673ffffffffffffffffffffffffffffffffffffffff1673ffffffffffffffffffffffffffffffffffffffff16815260200190815260200160002081905550505b600073ffffffffffffffffffffffffffffffffffffffff168273ffffffffffffffffffffffffffffffffffffffff160361126957806002600082825403925050819055506112b6565b806000808473ffffffffffffffffffffffffffffffffffffffff1673ffffffffffffffffffffffffffffffffffffffff168152602001908152602001600020600082825401925050819055505b8173ffffffffffffffffffffffffffffffffffffffff168373ffffffffffffffffffffffffffffffffffffffff167fddf252ad1be2c89b69c2b068fc378daa952ba7f163c4a11628f55a4df523b3ef83604051611313919061171a565b60405180910390a3505050565b600073ffffffffffffffffffffffffffffffffffffffff168473ffffffffffffffffffffffffffffffffffffffff16036113925760006040517fe602df050000000000000000000000000000000000000000000000000000000081526004016113899190611801565b60405180910390fd5b600073ffffffffffffffffffffffffffffffffffffffff168373ffffffffffffffffffffffffffffffffffffffff16036114045760006040517f94280d620000000000000000000000000000000000000000000000000000000081526004016113fb9190611801565b60405180910390fd5b81600160008673ffffffffffffffffffffffffffffffffffffffff1673ffffffffffffffffffffffffffffffffffffffff16815260200190815260200160002060008573ffffffffffffffffffffffffffffffffffffffff1673ffffffffffffffffffffffffffffffffffffffff1681526020019081526020016000208190555080156114f1578273ffffffffffffffffffffffffffffffffffffffff168473ffffffffffffffffffffffffffffffffffffffff167f8c5be1e5ebec7d5bd14f71427d1e84f3dd0314c0f7b2291e5b200ac8c7c3b925846040516114e8919061171a565b60405180910390a35b50505050565b600080fd5b600073ffffffffffffffffffffffffffffffffffffffff82169050919050565b6000611527826114fc565b9050919050565b6115378161151c565b811461154257600080fd5b50565b6000813590506115548161152e565b92915050565b6000819050919050565b61156d8161155a565b811461157857600080fd5b50565b60008135905061158a81611564565b92915050565b6000806000606084860312156115a9576115a86114f7565b5b60006115b786828701611545565b93505060206115c886828701611545565b92505060406115d98682870161157b565b9150509250925092565b600080604083850312156115fa576115f96114f7565b5b600061160885828601611545565b92505060206116198582860161157b565b9150509250929050565b60008115159050919050565b61163881611623565b82525050565b6000602082019050611653600083018461162f565b92915050565b600081519050919050565b600082825260208201905092915050565b60005b83811015611693578082015181840152602081019050611678565b60008484015250505050565b6000601f19601f8301169050919050565b60006116bb82611659565b6116c58185611664565b93506116d5818560208601611675565b6116de8161169f565b840191505092915050565b6000602082019050818103600083015261170381846116b0565b905092915050565b6117148161155a565b82525050565b600060208201905061172f600083018461170b565b92915050565b61173e81611623565b811461174957600080fd5b50565b60008135905061175b81611735565b92915050565b600060208284031215611777576117766114f7565b5b60006117858482850161174c565b91505092915050565b600060ff82169050919050565b6117a48161178e565b82525050565b60006020820190506117bf600083018461179b565b92915050565b6000602082840312156117db576117da6114f7565b5b60006117e984828501611545565b91505092915050565b6117fb8161151c565b82525050565b600060208201905061181660008301846117f2565b92915050565b60008060408385031215611833576118326114f7565b5b600061184185828601611545565b925050602061185285828601611545565b9150509250929050565b7f496e76616c69642073656e646572206164647265737300000000000000000000600082015250565b6000611892601683611664565b915061189d8261185c565b602082019050919050565b600060208201905081810360008301526118c181611885565b9050919050565b7f496e76616c696420726563697069656e74206164647265737300000000000000600082015250565b60006118fe601983611664565b9150611909826118c8565b602082019050919050565b6000602082019050818103600083015261192d816118f1565b9050919050565b7f496e73756666696369656e742062616c616e6365000000000000000000000000600082015250565b600061196a601483611664565b915061197582611934565b602082019050919050565b600060208201905081810360008301526119998161195d565b9050919050565b7f43616e6e6f742073656e6420746f207a65726f20616464726573730000000000600082015250565b60006119d6601b83611664565b91506119e1826119a0565b602082019050919050565b60006020820190508181036000830152611a05816119c9565b9050919050565b7f416d6f756e74206d7573742062652067726561746572207468616e207a65726f600082015250565b6000611a42602083611664565b9150611a4d82611a0c565b602082019050919050565b60006020820190508181036000830152611a7181611a35565b9050919050565b7f4e487b7100000000000000000000000000000000000000000000000000000000600052602260045260246000fd5b60006002820490506001821680611abf57607f821691505b602082108103611ad257611ad1611a78565b5b50919050565b7f4e6f7420617574686f72697a656420746f206d696e7420746f6b656e73000000600082015250565b6000611b0e601d83611664565b9150611b1982611ad8565b602082019050919050565b60006020820190508181036000830152611b3d81611b01565b9050919050565b7f4e487b7100000000000000000000000000000000000000000000000000000000600052601160045260246000fd5b60008160011c9050919050565b6000808291508390505b6001851115611bca57808604811115611ba657611ba5611b44565b5b6001851615611bb55780820291505b8081029050611bc385611b73565b9450611b8a565b94509492505050565b600082611be35760019050611c9f565b81611bf15760009050611c9f565b8160018114611c075760028114611c1157611c40565b6001915050611c9f565b60ff841115611c2357611c22611b44565b5b8360020a915084821115611c3a57611c39611b44565b5b50611c9f565b5060208310610133831016604e8410600b8410161715611c755782820a905083811115611c7057611c6f611b44565b5b611c9f565b611c828484846001611b80565b92509050818404811115611c9957611c98611b44565b5b81810290505b9392505050565b6000611cb18261155a565b9150611cbc8361178e565b9250611ce97fffffffffffffffffffffffffffffffffffffffffffffffffffffffffffffffff8484611bd3565b905092915050565b6000611cfc8261155a565b9150611d078361155a565b9250828202611d158161155a565b91508282048414831517611d2c57611d2b611b44565b5b5092915050565b7f496e73756666696369656e7420524d542062616c616e63650000000000000000600082015250565b6000611d69601883611664565b9150611d7482611d33565b602082019050919050565b60006020820190508181036000830152611d9881611d5c565b9050919050565b7f4e6f7420617574686f72697a656420746f206275726e20746865736520746f6b60008201527f656e730000000000000000000000000000000000000000000000000000000000602082015250565b6000611dfb602383611664565b9150611e0682611d9f565b604082019050919050565b60006020820190508181036000830152611e2a81611dee565b9050919050565b6000606082019050611e4660008301866117f2565b611e53602083018561170b565b611e60604083018461170b565b949350505050565b6000611e738261155a565b9150611e7e8361155a565b9250828201905080821115611e9657611e95611b44565b5b9291505056fea26469706673582212206ff6700806d726ef787ac361d6f156f2806d55baf261a4ba55fde1846dfbe59b64736f6c634300081c0033",
  "linkReferences": {},
  "deployedLinkReferences": {}
}