{
  "_format": "hh-sol-artifact-1",
  "contractName": "RemittanceToken",
  "sourceName": "contracts/RemittanceToken.sol",
  "abi": [
    {
      "inputs": [],
      "stateMutability": "nonpayable",
      "type": "constructor"
    },
    {
      "inputs": [
        {
          "internalType": "address",
          "name": "spender",
          "type": "address"
        },
        {
          "internalType": "uint256",
          "name": "allowance",
          "type": "uint256"
        },
        {
          "internalType": "uint256",
          "name": "needed",
          "type": "uint256"
        }
      ],
      "name": "ERC20InsufficientAllowance",
      "type": "error"
    },
    {
      "inputs": [
        {
          "internalType": "address",
          "name": "sender",
          "type": "address"
        },
        {
          "internalType": "uint256",
          "name": "balance",
          "type": "uint256"
        },
        {
          "internalType": "uint256",
          "name": "needed",
          "type": "uint256"
        }
      ],
      "name": "ERC20InsufficientBalance",
      "type": "error"
    },
    {
      "inputs": [
        {
          "internalType": "address",
          "name": "approver",
          "type": "address"
        }
      ],
      "name": "ERC20InvalidApprover",
      "type": "error"
    },
    {
      "inputs": [
        {
          "internalType": "address",
          "name": "receiver",
          "type": "address"
        }
      ],
      "name": "ERC20InvalidReceiver",
      "type": "error"
    },
    {
      "inputs": [
        {
          "internalType": "address",
          "name": "sender",
          "type": "address"
        }
      ],
      "name": "ERC20InvalidSender",
      "type": "error"
    },
    {
      "inputs": [
        {
          "internalType": "address",
          "name": "spender",
          "type": "address"
        }
      ],
      "name": "ERC20InvalidSpender",
      "type": "error"
    },
    {
      "inputs": [
        {
          "internalType": "address",
          "name": "owner",
          "type": "address"
        }
      ],
      "name": "OwnableInvalidOwner",
      "type": "error"
    },
    {
      "inputs": [
        {
          "internalType": "address",
          "name": "account",
          "type": "address"
        }
      ],
      "name": "OwnableUnauthorizedAccount",
      "type": "error"
    },
    {
      "anonymous": false,
      "inputs": [
        {
          "indexed": true,
          "internalType": "address",
          "name": "owner",
          "type": "address"
        },
        {
          "indexed": true,
          "internalType": "address",
          "name": "spender",
          "type": "address"
        },
        {
          "indexed": false,
          "internalType": "uint256",
          "name": "value",
          "type": "uint256"
        }
      ],
      "name": "Approval",
      "type": "event"
    },
    {
      "anonymous": false,
      "inputs": [
        {
          "indexed": true,
          "internalType": "address",
          "name": "previousOwner",
          "type": "address"
        },
        {
          "indexed": true,
          "internalType": "address",
          "name": "newOwner",
          "type": "address"
        }
      ],
      "name": "OwnershipTransferred",
      "type": "event"
    },
    {
      "anonymous": false,
      "inputs": [
        {
          "indexed": true,
          "internalType": "address",
          "name": "user",
          "type": "address"
        },
        {
          "indexed": false,
          "internalType": "uint256",
          "name": "tokenAmount",
          "type": "uint256"
        }
      ],
      "name": "TokensBurned",
      "type": "event"
    },
    {
      "anonymous": false,
      "inputs": [
        {
          "indexed": true,
          "internalType": "address",
          "name": "user",
          "type": "address"
        },
        {
          "indexed": false,
          "internalType": "uint256",
          "name": "tokenAmount",
          "type": "uint256"
        }
      ],
      "name": "TokensMinted",
      "type": "event"
    },
    {
      "anonymous": false,
      "inputs": [
        {
          "indexed": true,
          "internalType": "address",
          "name": "from",
          "type": "address"
        },
        {
          "indexed": true,
          "internalType": "address",
          "name": "to",
          "type": "address"
        },
        {
          "indexed": false,
          "internalType": "uint256",
          "name": "value",
          "type": "uint256"
        }
      ],
      "name": "Transfer",
      "type": "event"
    },
    {
      "inputs": [
        {
          "internalType": "address",
          "name": "owner",
          "type": "address"
        },
        {
          "internalType": "address",
          "name": "spender",
          "type": "address"
        }
      ],
      "name": "allowance",
      "outputs": [
        {
          "internalType": "uint256",
          "name": "",
          "type": "uint256"
        }
      ],
      "stateMutability": "view",
      "type": "function"
    },
    {
      "inputs": [
        {
          "internalType": "address",
          "name": "spender",
          "type": "address"
        },
        {
          "internalType": "uint256",
          "name": "value",
          "type": "uint256"
        }
      ],
      "name": "approve",
      "outputs": [
        {
          "internalType": "bool",
          "name": "",
          "type": "bool"
        }
      ],
      "stateMutability": "nonpayable",
      "type": "function"
    },
    {
      "inputs": [
        {
          "internalType": "address",
          "name": "account",
          "type": "address"
        }
      ],
      "name": "balanceOf",
      "outputs": [
        {
          "internalType": "uint256",
          "name": "",
          "type": "uint256"
        }
      ],
      "stateMutability": "view",
      "type": "function"
    },
    {
      "inputs": [
        {
          "internalType": "address",
          "name": "user",
          "type": "address"
        },
        {
          "internalType": "uint256",
          "name": "tokenAmount",
          "type": "uint256"
        }
      ],
      "name": "burnTokensForUSD",
      "outputs": [],
      "stateMutability": "nonpayable",
      "type": "function"
    },
    {
      "inputs": [],
      "name": "decimals",
      "outputs": [
        {
          "internalType": "uint8",
          "name": "",
          "type": "uint8"
        }
      ],
      "stateMutability": "view",
      "type": "function"
    },
    {
      "inputs": [
        {
          "internalType": "address",
          "name": "user",
          "type": "address"
        },
        {
          "internalType": "uint256",
          "name": "balance",
          "type": "uint256"
        }
      ],
      "name": "mintForUser",
      "outputs": [],
      "stateMutability": "nonpayable",
      "type": "function"
    },
    {
      "inputs": [],
      "name": "name",
      "outputs": [
        {
          "internalType": "string",
          "name": "",
          "type": "string"
        }
      ],
      "stateMutability": "view",
      "type": "function"
    },
    {
      "inputs": [],
      "name": "owner",
      "outputs": [
        {
          "internalType": "address",
          "name": "",
          "type": "address"
        }
      ],
      "stateMutability": "view",
      "type": "function"
    },
    {
      "inputs": [],
      "name": "renounceOwnership",
      "outputs": [],
      "stateMutability": "nonpayable",
      "type": "function"
    },
    {
      "inputs": [],
      "name": "symbol",
      "outputs": [
        {
          "internalType": "string",
          "name": "",
          "type": "string"
        }
      ],
      "stateMutability": "view",
      "type": "function"
    },
    {
      "inputs": [],
      "name": "totalSupply",
      "outputs": [
        {
          "internalType": "uint256",
          "name": "",
          "type": "uint256"
        }
      ],
      "stateMutability": "view",
      "type": "function"
    },
    {
      "inputs": [
        {
          "internalType": "address",
          "name": "to",
          "type": "address"
        },
        {
          "internalType": "uint256",
          "name": "value",
          "type": "uint256"
        }
      ],
      "name": "transfer",
      "outputs": [
        {
          "internalType": "bool",
          "name": "",
          "type": "bool"
        }
      ],
      "stateMutability": "nonpayable",
      "type": "function"
    },
    {
      "inputs": [
        {
          "internalType": "address",
          "name": "from",
          "type": "address"
        },
        {
          "internalType": "address",
          "name": "to",
          "type": "address"
        },
        {
          "internalType": "uint256",
          "name": "value",
          "type": "uint256"
        }
      ],
      "name": "transferFrom",
      "outputs": [
        {
          "internalType": "bool",
          "name": "",
          "type": "bool"
        }
      ],
      "stateMutability": "nonpayable",
      "type": "function"
    },
    {
      "inputs": [
        {
          "internalType": "address",
          "name": "newOwner",
          "type": "address"
        }
      ],
      "name": "transferOwnership",
      "outputs": [],
      "stateMutability": "nonpayable",
      "type": "function"
    }
  ],
  "bytecode": "0x608060405234801561001057600080fd5b50336040518060400160405280600f81526020017f52656d697474616e6365546f6b656e00000000000000000000000000000000008152506040518060400160405280600381526020017f524d540000000000000000000000000000000000000000000000000000000000815250816003908161008d919061043d565b50806004908161009d919061043d565b505050600073ffffffffffffffffffffffffffffffffffffffff168173ffffffffffffffffffffffffffffffffffffffff16036101125760006040517f1e4fbdf70000000000000000000000000000000000000000000000000000000081526004016101099190610550565b60405180910390fd5b6101218161012760201b60201c565b5061056b565b6000600560009054906101000a900473ffffffffffffffffffffffffffffffffffffffff16905081600560006101000a81548173ffffffffffffffffffffffffffffffffffffffff021916908373ffffffffffffffffffffffffffffffffffffffff1602179055508173ffffffffffffffffffffffffffffffffffffffff168173ffffffffffffffffffffffffffffffffffffffff167f8be0079c531659141344cd1fd0a4f28419497f9722a3daafe3b4186f6b6457e060405160405180910390a35050565b600081519050919050565b7f4e487b7100000000000000000000000000000000000000000000000000000000600052604160045260246000fd5b7f4e487b7100000000000000000000000000000000000000000000000000000000600052602260045260246000fd5b6000600282049050600182168061026e57607f821691505b60208210810361028157610280610227565b5b50919050565b60008190508160005260206000209050919050565b60006020601f8301049050919050565b600082821b905092915050565b6000600883026102e97fffffffffffffffffffffffffffffffffffffffffffffffffffffffffffffffff826102ac565b6102f386836102ac565b95508019841693508086168417925050509392505050565b6000819050919050565b6000819050919050565b600061033a6103356103308461030b565b610315565b61030b565b9050919050565b6000819050919050565b6103548361031f565b61036861036082610341565b8484546102b9565b825550505050565b600090565b61037d610370565b61038881848461034b565b505050565b5b818110156103ac576103a1600082610375565b60018101905061038e565b5050565b601f8211156103f1576103c281610287565b6103cb8461029c565b810160208510156103da578190505b6103ee6103e68561029c565b83018261038d565b50505b505050565b600082821c905092915050565b6000610414600019846008026103f6565b1980831691505092915050565b600061042d8383610403565b9150826002028217905092915050565b610446826101ed565b67ffffffffffffffff81111561045f5761045e6101f8565b5b6104698254610256565b6104748282856103b0565b600060209050601f8311600181146104a75760008415610495578287015190505b61049f8582610421565b865550610507565b601f1984166104b586610287565b60005b828110156104dd578489015182556001820191506020850194506020810190506104b8565b868310156104fa57848901516104f6601f891682610403565b8355505b6001600288020188555050505b505050505050565b600073ffffffffffffffffffffffffffffffffffffffff82169050919050565b600061053a8261050f565b9050919050565b61054a8161052f565b82525050565b60006020820190506105656000830184610541565b92915050565b6116938061057a6000396000f3fe608060405234801561001057600080fd5b50600436106100ea5760003560e01c80638da5cb5b1161008c578063d0dbc83311610066578063d0dbc8331461024f578063dd62ed3e1461026b578063f2fde38b1461029b578063fd62e8a3146102b7576100ea565b80638da5cb5b146101e357806395d89b4114610201578063a9059cbb1461021f576100ea565b806323b872dd116100c857806323b872dd1461015b578063313ce5671461018b57806370a08231146101a9578063715018a6146101d9576100ea565b806306fdde03146100ef578063095ea7b31461010d57806318160ddd1461013d575b600080fd5b6100f76102d3565b604051610104919061104f565b60405180910390f35b6101276004803603810190610122919061110a565b610365565b6040516101349190611165565b60405180910390f35b610145610388565b604051610152919061118f565b60405180910390f35b610175600480360381019061017091906111aa565b610392565b6040516101829190611165565b60405180910390f35b6101936103c1565b6040516101a09190611219565b60405180910390f35b6101c360048036038101906101be9190611234565b6103ca565b6040516101d0919061118f565b60405180910390f35b6101e1610412565b005b6101eb610426565b6040516101f89190611270565b60405180910390f35b610209610450565b604051610216919061104f565b60405180910390f35b6102396004803603810190610234919061110a565b6104e2565b6040516102469190611165565b60405180910390f35b6102696004803603810190610264919061110a565b610505565b005b6102856004803603810190610280919061128b565b6105d0565b604051610292919061118f565b60405180910390f35b6102b560048036038101906102b09190611234565b610657565b005b6102d160048036038101906102cc919061110a565b6106dd565b005b6060600380546102e2906112fa565b80601f016020809104026020016040519081016040528092919081815260200182805461030e906112fa565b801561035b5780601f106103305761010080835404028352916020019161035b565b820191906000526020600020905b81548152906001019060200180831161033e57829003601f168201915b5050505050905090565b6000806103706107cf565b905061037d8185856107d7565b600191505092915050565b6000600254905090565b60008061039d6107cf565b90506103aa8582856107e9565b6103b585858561087e565b60019150509392505050565b60006012905090565b60008060008373ffffffffffffffffffffffffffffffffffffffff1673ffffffffffffffffffffffffffffffffffffffff168152602001908152602001600020549050919050565b61041a610972565b61042460006109f9565b565b6000600560009054906101000a900473ffffffffffffffffffffffffffffffffffffffff16905090565b60606004805461045f906112fa565b80601f016020809104026020016040519081016040528092919081815260200182805461048b906112fa565b80156104d85780601f106104ad576101008083540402835291602001916104d8565b820191906000526020600020905b8154815290600101906020018083116104bb57829003601f168201915b5050505050905090565b6000806104ed6107cf565b90506104fa81858561087e565b600191505092915050565b61050d610972565b60008111610550576040517f08c379a000000000000000000000000000000000000000000000000000000000815260040161054790611377565b60405180910390fd5b600061055a6103c1565b600a61056691906114f9565b826105719190611544565b905061057d8382610abf565b8273ffffffffffffffffffffffffffffffffffffffff167f3f2c9d57c068687834f0de942a9babb9e5acab57d516d3480a3c16ee165a4273826040516105c3919061118f565b60405180910390a2505050565b6000600160008473ffffffffffffffffffffffffffffffffffffffff1673ffffffffffffffffffffffffffffffffffffffff16815260200190815260200160002060008373ffffffffffffffffffffffffffffffffffffffff1673ffffffffffffffffffffffffffffffffffffffff16815260200190815260200160002054905092915050565b61065f610972565b600073ffffffffffffffffffffffffffffffffffffffff168173ffffffffffffffffffffffffffffffffffffffff16036106d15760006040517f1e4fbdf70000000000000000000000000000000000000000000000000000000081526004016106c89190611270565b60405180910390fd5b6106da816109f9565b50565b6106e5610972565b60008111610728576040517f08c379a000000000000000000000000000000000000000000000000000000000815260040161071f90611377565b60405180910390fd5b80610732836103ca565b1015610773576040517f08c379a000000000000000000000000000000000000000000000000000000000815260040161076a906115d2565b60405180910390fd5b61077d8282610b41565b8173ffffffffffffffffffffffffffffffffffffffff167ffd38818f5291bf0bb3a2a48aadc06ba8757865d1dabd804585338aab3009dcb6826040516107c3919061118f565b60405180910390a25050565b600033905090565b6107e48383836001610bc3565b505050565b60006107f584846105d0565b90507fffffffffffffffffffffffffffffffffffffffffffffffffffffffffffffffff8110156108785781811015610868578281836040517ffb8f41b200000000000000000000000000000000000000000000000000000000815260040161085f939291906115f2565b60405180910390fd5b61087784848484036000610bc3565b5b50505050565b600073ffffffffffffffffffffffffffffffffffffffff168373ffffffffffffffffffffffffffffffffffffffff16036108f05760006040517f96c6fd1e0000000000000000000000000000000000000000000000000000000081526004016108e79190611270565b60405180910390fd5b600073ffffffffffffffffffffffffffffffffffffffff168273ffffffffffffffffffffffffffffffffffffffff16036109625760006040517fec442f050000000000000000000000000000000000000000000000000000000081526004016109599190611270565b60405180910390fd5b61096d838383610d9a565b505050565b61097a6107cf565b73ffffffffffffffffffffffffffffffffffffffff16610998610426565b73ffffffffffffffffffffffffffffffffffffffff16146109f7576109bb6107cf565b6040517f118cdaa70000000000000000000000000000000000000000000000000000000081526004016109ee9190611270565b60405180910390fd5b565b6000600560009054906101000a900473ffffffffffffffffffffffffffffffffffffffff16905081600560006101000a81548173ffffffffffffffffffffffffffffffffffffffff021916908373ffffffffffffffffffffffffffffffffffffffff1602179055508173ffffffffffffffffffffffffffffffffffffffff168173ffffffffffffffffffffffffffffffffffffffff167f8be0079c531659141344cd1fd0a4f28419497f9722a3daafe3b4186f6b6457e060405160405180910390a35050565b600073ffffffffffffffffffffffffffffffffffffffff168273ffffffffffffffffffffffffffffffffffffffff1603610b315760006040517fec442f05000000000000000000000000000000000000000000000000000000008152600401610b289190611270565b60405180910390fd5b610b3d60008383610d9a565b5050565b600073ffffffffffffffffffffffffffffffffffffffff168273ffffffffffffffffffffffffffffffffffffffff1603610bb35760006040517f96c6fd1e000000000000000000000000000000000000000000000000000000008152600401610baa9190611270565b60405180910390fd5b610bbf82600083610d9a565b5050565b600073ffffffffffffffffffffffffffffffffffffffff168473ffffffffffffffffffffffffffffffffffffffff1603610c355760006040517fe602df05000000000000000000000000000000000000000000000000000000008152600401610c2c9190611270565b60405180910390fd5b600073ffffffffffffffffffffffffffffffffffffffff168373ffffffffffffffffffffffffffffffffffffffff1603610ca75760006040517f94280d62000000000000000000000000000000000000000000000000000000008152600401610c9e9190611270565b60405180910390fd5b81600160008673ffffffffffffffffffffffffffffffffffffffff1673ffffffffffffffffffffffffffffffffffffffff16815260200190815260200160002060008573ffffffffffffffffffffffffffffffffffffffff1673ffffffffffffffffffffffffffffffffffffffff168152602001908152602001600020819055508015610d94578273ffffffffffffffffffffffffffffffffffffffff168473ffffffffffffffffffffffffffffffffffffffff167f8c5be1e5ebec7d5bd14f71427d1e84f3dd0314c0f7b2291e5b200ac8c7c3b92584604051610d8b919061118f565b60405180910390a35b50505050565b600073ffffffffffffffffffffffffffffffffffffffff168373ffffffffffffffffffffffffffffffffffffffff1603610dec578060026000828254610de09190611629565b92505081905550610ebf565b60008060008573ffffffffffffffffffffffffffffffffffffffff1673ffffffffffffffffffffffffffffffffffffffff16815260200190815260200160002054905081811015610e78578381836040517fe450d38c000000000000000000000000000000000000000000000000000000008152600401610e6f939291906115f2565b60405180910390fd5b8181036000808673ffffffffffffffffffffffffffffffffffffffff1673ffffffffffffffffffffffffffffffffffffffff16815260200190815260200160002081905550505b600073ffffffffffffffffffffffffffffffffffffffff168273ffffffffffffffffffffffffffffffffffffffff1603610f085780600260008282540392505081905550610f55565b806000808473ffffffffffffffffffffffffffffffffffffffff1673ffffffffffffffffffffffffffffffffffffffff168152602001908152602001600020600082825401925050819055505b8173ffffffffffffffffffffffffffffffffffffffff168373ffffffffffffffffffffffffffffffffffffffff167fddf252ad1be2c89b69c2b068fc378daa952ba7f163c4a11628f55a4df523b3ef83604051610fb2919061118f565b60405180910390a3505050565b600081519050919050565b600082825260208201905092915050565b60005b83811015610ff9578082015181840152602081019050610fde565b60008484015250505050565b6000601f19601f8301169050919050565b600061102182610fbf565b61102b8185610fca565b935061103b818560208601610fdb565b61104481611005565b840191505092915050565b600060208201905081810360008301526110698184611016565b905092915050565b600080fd5b600073ffffffffffffffffffffffffffffffffffffffff82169050919050565b60006110a182611076565b9050919050565b6110b181611096565b81146110bc57600080fd5b50565b6000813590506110ce816110a8565b92915050565b6000819050919050565b6110e7816110d4565b81146110f257600080fd5b50565b600081359050611104816110de565b92915050565b6000806040838503121561112157611120611071565b5b600061112f858286016110bf565b9250506020611140858286016110f5565b9150509250929050565b60008115159050919050565b61115f8161114a565b82525050565b600060208201905061117a6000830184611156565b92915050565b611189816110d4565b82525050565b60006020820190506111a46000830184611180565b92915050565b6000806000606084860312156111c3576111c2611071565b5b60006111d1868287016110bf565b93505060206111e2868287016110bf565b92505060406111f3868287016110f5565b9150509250925092565b600060ff82169050919050565b611213816111fd565b82525050565b600060208201905061122e600083018461120a565b92915050565b60006020828403121561124a57611249611071565b5b6000611258848285016110bf565b91505092915050565b61126a81611096565b82525050565b60006020820190506112856000830184611261565b92915050565b600080604083850312156112a2576112a1611071565b5b60006112b0858286016110bf565b92505060206112c1858286016110bf565b9150509250929050565b7f4e487b7100000000000000000000000000000000000000000000000000000000600052602260045260246000fd5b6000600282049050600182168061131257607f821691505b602082108103611325576113246112cb565b5b50919050565b7f416d6f756e74206d7573742062652067726561746572207468616e207a65726f600082015250565b6000611361602083610fca565b915061136c8261132b565b602082019050919050565b6000602082019050818103600083015261139081611354565b9050919050565b7f4e487b7100000000000000000000000000000000000000000000000000000000600052601160045260246000fd5b60008160011c9050919050565b6000808291508390505b600185111561141d578086048111156113f9576113f8611397565b5b60018516156114085780820291505b8081029050611416856113c6565b94506113dd565b94509492505050565b60008261143657600190506114f2565b8161144457600090506114f2565b816001811461145a576002811461146457611493565b60019150506114f2565b60ff84111561147657611475611397565b5b8360020a91508482111561148d5761148c611397565b5b506114f2565b5060208310610133831016604e8410600b84101617156114c85782820a9050838111156114c3576114c2611397565b5b6114f2565b6114d584848460016113d3565b925090508184048111156114ec576114eb611397565b5b81810290505b9392505050565b6000611504826110d4565b915061150f836111fd565b925061153c7fffffffffffffffffffffffffffffffffffffffffffffffffffffffffffffffff8484611426565b905092915050565b600061154f826110d4565b915061155a836110d4565b9250828202611568816110d4565b9150828204841483151761157f5761157e611397565b5b5092915050565b7f496e73756666696369656e7420524d542062616c616e63650000000000000000600082015250565b60006115bc601883610fca565b91506115c782611586565b602082019050919050565b600060208201905081810360008301526115eb816115af565b9050919050565b60006060820190506116076000830186611261565b6116146020830185611180565b6116216040830184611180565b949350505050565b6000611634826110d4565b915061163f836110d4565b925082820190508082111561165757611656611397565b5b9291505056fea2646970667358221220c7b18d79ee8dcf1eaeaa515fc6ea1f986eb998af5772d9f580a7a999e916835d64736f6c634300081c0033",
  "linkReferences": {},
  "deployedLinkReferences": {}
}