{
  "_format": "hh-sol-artifact-1",
  "contractName": "RemittanceToken",
  "sourceName": "contracts/RemittanceToken.sol",
  "abi": [
    {
      "inputs": [],
      "stateMutability": "nonpayable",
      "type": "constructor"
    },
    {
      "inputs": [
        {
          "internalType": "address",
          "name": "spender",
          "type": "address"
        },
        {
          "internalType": "uint256",
          "name": "allowance",
          "type": "uint256"
        },
        {
          "internalType": "uint256",
          "name": "needed",
          "type": "uint256"
        }
      ],
      "name": "ERC20InsufficientAllowance",
      "type": "error"
    },
    {
      "inputs": [
        {
          "internalType": "address",
          "name": "sender",
          "type": "address"
        },
        {
          "internalType": "uint256",
          "name": "balance",
          "type": "uint256"
        },
        {
          "internalType": "uint256",
          "name": "needed",
          "type": "uint256"
        }
      ],
      "name": "ERC20InsufficientBalance",
      "type": "error"
    },
    {
      "inputs": [
        {
          "internalType": "address",
          "name": "approver",
          "type": "address"
        }
      ],
      "name": "ERC20InvalidApprover",
      "type": "error"
    },
    {
      "inputs": [
        {
          "internalType": "address",
          "name": "receiver",
          "type": "address"
        }
      ],
      "name": "ERC20InvalidReceiver",
      "type": "error"
    },
    {
      "inputs": [
        {
          "internalType": "address",
          "name": "sender",
          "type": "address"
        }
      ],
      "name": "ERC20InvalidSender",
      "type": "error"
    },
    {
      "inputs": [
        {
          "internalType": "address",
          "name": "spender",
          "type": "address"
        }
      ],
      "name": "ERC20InvalidSpender",
      "type": "error"
    },
    {
      "inputs": [
        {
          "internalType": "address",
          "name": "owner",
          "type": "address"
        }
      ],
      "name": "OwnableInvalidOwner",
      "type": "error"
    },
    {
      "inputs": [
        {
          "internalType": "address",
          "name": "account",
          "type": "address"
        }
      ],
      "name": "OwnableUnauthorizedAccount",
      "type": "error"
    },
    {
      "anonymous": false,
      "inputs": [
        {
          "indexed": true,
          "internalType": "address",
          "name": "owner",
          "type": "address"
        },
        {
          "indexed": true,
          "internalType": "address",
          "name": "spender",
          "type": "address"
        },
        {
          "indexed": false,
          "internalType": "uint256",
          "name": "value",
          "type": "uint256"
        }
      ],
      "name": "Approval",
      "type": "event"
    },
    {
      "anonymous": false,
      "inputs": [
        {
          "indexed": true,
          "internalType": "address",
          "name": "previousOwner",
          "type": "address"
        },
        {
          "indexed": true,
          "internalType": "address",
          "name": "newOwner",
          "type": "address"
        }
      ],
      "name": "OwnershipTransferred",
      "type": "event"
    },
    {
      "anonymous": false,
      "inputs": [
        {
          "indexed": true,
          "internalType": "address",
          "name": "user",
          "type": "address"
        },
        {
          "indexed": false,
          "internalType": "uint256",
          "name": "amount",
          "type": "uint256"
        },
        {
          "indexed": false,
          "internalType": "string",
          "name": "userId",
          "type": "string"
        }
      ],
      "name": "TokensBurned",
      "type": "event"
    },
    {
      "anonymous": false,
      "inputs": [
        {
          "indexed": true,
          "internalType": "address",
          "name": "user",
          "type": "address"
        },
        {
          "indexed": false,
          "internalType": "uint256",
          "name": "amount",
          "type": "uint256"
        },
        {
          "indexed": false,
          "internalType": "string",
          "name": "userId",
          "type": "string"
        }
      ],
      "name": "TokensMinted",
      "type": "event"
    },
    {
      "anonymous": false,
      "inputs": [
        {
          "indexed": true,
          "internalType": "address",
          "name": "from",
          "type": "address"
        },
        {
          "indexed": true,
          "internalType": "address",
          "name": "to",
          "type": "address"
        },
        {
          "indexed": false,
          "internalType": "uint256",
          "name": "value",
          "type": "uint256"
        }
      ],
      "name": "Transfer",
      "type": "event"
    },
    {
      "inputs": [
        {
          "internalType": "address",
          "name": "owner",
          "type": "address"
        },
        {
          "internalType": "address",
          "name": "spender",
          "type": "address"
        }
      ],
      "name": "allowance",
      "outputs": [
        {
          "internalType": "uint256",
          "name": "",
          "type": "uint256"
        }
      ],
      "stateMutability": "view",
      "type": "function"
    },
    {
      "inputs": [
        {
          "internalType": "address",
          "name": "spender",
          "type": "address"
        },
        {
          "internalType": "uint256",
          "name": "value",
          "type": "uint256"
        }
      ],
      "name": "approve",
      "outputs": [
        {
          "internalType": "bool",
          "name": "",
          "type": "bool"
        }
      ],
      "stateMutability": "nonpayable",
      "type": "function"
    },
    {
      "inputs": [
        {
          "internalType": "address",
          "name": "account",
          "type": "address"
        }
      ],
      "name": "balanceOf",
      "outputs": [
        {
          "internalType": "uint256",
          "name": "",
          "type": "uint256"
        }
      ],
      "stateMutability": "view",
      "type": "function"
    },
    {
      "inputs": [
        {
          "internalType": "address",
          "name": "user",
          "type": "address"
        },
        {
          "internalType": "uint256",
          "name": "tokenAmount",
          "type": "uint256"
        },
        {
          "internalType": "string",
          "name": "userId",
          "type": "string"
        }
      ],
      "name": "burnTokensForUSD",
      "outputs": [],
      "stateMutability": "nonpayable",
      "type": "function"
    },
    {
      "inputs": [],
      "name": "decimals",
      "outputs": [
        {
          "internalType": "uint8",
          "name": "",
          "type": "uint8"
        }
      ],
      "stateMutability": "view",
      "type": "function"
    },
    {
      "inputs": [
        {
          "internalType": "address",
          "name": "user",
          "type": "address"
        },
        {
          "internalType": "uint256",
          "name": "usdAmount",
          "type": "uint256"
        },
        {
          "internalType": "string",
          "name": "userId",
          "type": "string"
        }
      ],
      "name": "mintForUser",
      "outputs": [],
      "stateMutability": "nonpayable",
      "type": "function"
    },
    {
      "inputs": [],
      "name": "name",
      "outputs": [
        {
          "internalType": "string",
          "name": "",
          "type": "string"
        }
      ],
      "stateMutability": "view",
      "type": "function"
    },
    {
      "inputs": [],
      "name": "owner",
      "outputs": [
        {
          "internalType": "address",
          "name": "",
          "type": "address"
        }
      ],
      "stateMutability": "view",
      "type": "function"
    },
    {
      "inputs": [],
      "name": "renounceOwnership",
      "outputs": [],
      "stateMutability": "nonpayable",
      "type": "function"
    },
    {
      "inputs": [],
      "name": "symbol",
      "outputs": [
        {
          "internalType": "string",
          "name": "",
          "type": "string"
        }
      ],
      "stateMutability": "view",
      "type": "function"
    },
    {
      "inputs": [],
      "name": "totalSupply",
      "outputs": [
        {
          "internalType": "uint256",
          "name": "",
          "type": "uint256"
        }
      ],
      "stateMutability": "view",
      "type": "function"
    },
    {
      "inputs": [
        {
          "internalType": "address",
          "name": "to",
          "type": "address"
        },
        {
          "internalType": "uint256",
          "name": "value",
          "type": "uint256"
        }
      ],
      "name": "transfer",
      "outputs": [
        {
          "internalType": "bool",
          "name": "",
          "type": "bool"
        }
      ],
      "stateMutability": "nonpayable",
      "type": "function"
    },
    {
      "inputs": [
        {
          "internalType": "address",
          "name": "from",
          "type": "address"
        },
        {
          "internalType": "address",
          "name": "to",
          "type": "address"
        },
        {
          "internalType": "uint256",
          "name": "value",
          "type": "uint256"
        }
      ],
      "name": "transferFrom",
      "outputs": [
        {
          "internalType": "bool",
          "name": "",
          "type": "bool"
        }
      ],
      "stateMutability": "nonpayable",
      "type": "function"
    },
    {
      "inputs": [
        {
          "internalType": "address",
          "name": "newOwner",
          "type": "address"
        }
      ],
      "name": "transferOwnership",
      "outputs": [],
      "stateMutability": "nonpayable",
      "type": "function"
    }
  ],
  "bytecode": "0x608060405234801561001057600080fd5b50336040518060400160405280600f81526020017f52656d697474616e6365546f6b656e00000000000000000000000000000000008152506040518060400160405280600381526020017f524d540000000000000000000000000000000000000000000000000000000000815250816003908161008d919061043d565b50806004908161009d919061043d565b505050600073ffffffffffffffffffffffffffffffffffffffff168173ffffffffffffffffffffffffffffffffffffffff16036101125760006040517f1e4fbdf70000000000000000000000000000000000000000000000000000000081526004016101099190610550565b60405180910390fd5b6101218161012760201b60201c565b5061056b565b6000600560009054906101000a900473ffffffffffffffffffffffffffffffffffffffff16905081600560006101000a81548173ffffffffffffffffffffffffffffffffffffffff021916908373ffffffffffffffffffffffffffffffffffffffff1602179055508173ffffffffffffffffffffffffffffffffffffffff168173ffffffffffffffffffffffffffffffffffffffff167f8be0079c531659141344cd1fd0a4f28419497f9722a3daafe3b4186f6b6457e060405160405180910390a35050565b600081519050919050565b7f4e487b7100000000000000000000000000000000000000000000000000000000600052604160045260246000fd5b7f4e487b7100000000000000000000000000000000000000000000000000000000600052602260045260246000fd5b6000600282049050600182168061026e57607f821691505b60208210810361028157610280610227565b5b50919050565b60008190508160005260206000209050919050565b60006020601f8301049050919050565b600082821b905092915050565b6000600883026102e97fffffffffffffffffffffffffffffffffffffffffffffffffffffffffffffffff826102ac565b6102f386836102ac565b95508019841693508086168417925050509392505050565b6000819050919050565b6000819050919050565b600061033a6103356103308461030b565b610315565b61030b565b9050919050565b6000819050919050565b6103548361031f565b61036861036082610341565b8484546102b9565b825550505050565b600090565b61037d610370565b61038881848461034b565b505050565b5b818110156103ac576103a1600082610375565b60018101905061038e565b5050565b601f8211156103f1576103c281610287565b6103cb8461029c565b810160208510156103da578190505b6103ee6103e68561029c565b83018261038d565b50505b505050565b600082821c905092915050565b6000610414600019846008026103f6565b1980831691505092915050565b600061042d8383610403565b9150826002028217905092915050565b610446826101ed565b67ffffffffffffffff81111561045f5761045e6101f8565b5b6104698254610256565b6104748282856103b0565b600060209050601f8311600181146104a75760008415610495578287015190505b61049f8582610421565b865550610507565b601f1984166104b586610287565b60005b828110156104dd578489015182556001820191506020850194506020810190506104b8565b868310156104fa57848901516104f6601f891682610403565b8355505b6001600288020188555050505b505050505050565b600073ffffffffffffffffffffffffffffffffffffffff82169050919050565b600061053a8261050f565b9050919050565b61054a8161052f565b82525050565b60006020820190506105656000830184610541565b92915050565b61187c8061057a6000396000f3fe608060405234801561001057600080fd5b50600436106100ea5760003560e01c8063715018a61161008c57806395d89b411161006657806395d89b4114610239578063a9059cbb14610257578063dd62ed3e14610287578063f2fde38b146102b7576100ea565b8063715018a6146101f55780637ab4da6d146101ff5780638da5cb5b1461021b576100ea565b806323b872dd116100c857806323b872dd1461015b578063313ce5671461018b57806356118bee146101a957806370a08231146101c5576100ea565b806306fdde03146100ef578063095ea7b31461010d57806318160ddd1461013d575b600080fd5b6100f76102d3565b6040516101049190611055565b60405180910390f35b6101276004803603810190610122919061111f565b610365565b604051610134919061117a565b60405180910390f35b610145610388565b60405161015291906111a4565b60405180910390f35b610175600480360381019061017091906111bf565b610392565b604051610182919061117a565b60405180910390f35b6101936103c1565b6040516101a0919061122e565b60405180910390f35b6101c360048036038101906101be919061137e565b6103ca565b005b6101df60048036038101906101da91906113ed565b6104bf565b6040516101ec91906111a4565b60405180910390f35b6101fd610507565b005b6102196004803603810190610214919061137e565b61051b565b005b6102236105e9565b6040516102309190611429565b60405180910390f35b610241610613565b60405161024e9190611055565b60405180910390f35b610271600480360381019061026c919061111f565b6106a5565b60405161027e919061117a565b60405180910390f35b6102a1600480360381019061029c9190611444565b6106c8565b6040516102ae91906111a4565b60405180910390f35b6102d160048036038101906102cc91906113ed565b61074f565b005b6060600380546102e2906114b3565b80601f016020809104026020016040519081016040528092919081815260200182805461030e906114b3565b801561035b5780601f106103305761010080835404028352916020019161035b565b820191906000526020600020905b81548152906001019060200180831161033e57829003601f168201915b5050505050905090565b6000806103706107d5565b905061037d8185856107dd565b600191505092915050565b6000600254905090565b60008061039d6107d5565b90506103aa8582856107ef565b6103b5858585610884565b60019150509392505050565b60006012905090565b6103d2610978565b60008211610415576040517f08c379a000000000000000000000000000000000000000000000000000000000815260040161040c90611530565b60405180910390fd5b8161041f846104bf565b1015610460576040517f08c379a00000000000000000000000000000000000000000000000000000000081526004016104579061159c565b60405180910390fd5b61046a83836109ff565b8273ffffffffffffffffffffffffffffffffffffffff167ffad31924d655455395c87544c8aa1ffdb5a7505a22a3c2e03f28003b6556a75f83836040516104b29291906115bc565b60405180910390a2505050565b60008060008373ffffffffffffffffffffffffffffffffffffffff1673ffffffffffffffffffffffffffffffffffffffff168152602001908152602001600020549050919050565b61050f610978565b6105196000610a81565b565b610523610978565b60008211610566576040517f08c379a000000000000000000000000000000000000000000000000000000000815260040161055d90611530565b60405180910390fd5b60006105706103c1565b600a61057c919061174e565b836105879190611799565b90506105938482610b47565b8373ffffffffffffffffffffffffffffffffffffffff167f9d89e36eadf856db0ad9ffb5a569e07f95634dddd9501141ecf04820484ad0dc82846040516105db9291906115bc565b60405180910390a250505050565b6000600560009054906101000a900473ffffffffffffffffffffffffffffffffffffffff16905090565b606060048054610622906114b3565b80601f016020809104026020016040519081016040528092919081815260200182805461064e906114b3565b801561069b5780601f106106705761010080835404028352916020019161069b565b820191906000526020600020905b81548152906001019060200180831161067e57829003601f168201915b5050505050905090565b6000806106b06107d5565b90506106bd818585610884565b600191505092915050565b6000600160008473ffffffffffffffffffffffffffffffffffffffff1673ffffffffffffffffffffffffffffffffffffffff16815260200190815260200160002060008373ffffffffffffffffffffffffffffffffffffffff1673ffffffffffffffffffffffffffffffffffffffff16815260200190815260200160002054905092915050565b610757610978565b600073ffffffffffffffffffffffffffffffffffffffff168173ffffffffffffffffffffffffffffffffffffffff16036107c95760006040517f1e4fbdf70000000000000000000000000000000000000000000000000000000081526004016107c09190611429565b60405180910390fd5b6107d281610a81565b50565b600033905090565b6107ea8383836001610bc9565b505050565b60006107fb84846106c8565b90507fffffffffffffffffffffffffffffffffffffffffffffffffffffffffffffffff81101561087e578181101561086e578281836040517ffb8f41b2000000000000000000000000000000000000000000000000000000008152600401610865939291906117db565b60405180910390fd5b61087d84848484036000610bc9565b5b50505050565b600073ffffffffffffffffffffffffffffffffffffffff168373ffffffffffffffffffffffffffffffffffffffff16036108f65760006040517f96c6fd1e0000000000000000000000000000000000000000000000000000000081526004016108ed9190611429565b60405180910390fd5b600073ffffffffffffffffffffffffffffffffffffffff168273ffffffffffffffffffffffffffffffffffffffff16036109685760006040517fec442f0500000000000000000000000000000000000000000000000000000000815260040161095f9190611429565b60405180910390fd5b610973838383610da0565b505050565b6109806107d5565b73ffffffffffffffffffffffffffffffffffffffff1661099e6105e9565b73ffffffffffffffffffffffffffffffffffffffff16146109fd576109c16107d5565b6040517f118cdaa70000000000000000000000000000000000000000000000000000000081526004016109f49190611429565b60405180910390fd5b565b600073ffffffffffffffffffffffffffffffffffffffff168273ffffffffffffffffffffffffffffffffffffffff1603610a715760006040517f96c6fd1e000000000000000000000000000000000000000000000000000000008152600401610a689190611429565b60405180910390fd5b610a7d82600083610da0565b5050565b6000600560009054906101000a900473ffffffffffffffffffffffffffffffffffffffff16905081600560006101000a81548173ffffffffffffffffffffffffffffffffffffffff021916908373ffffffffffffffffffffffffffffffffffffffff1602179055508173ffffffffffffffffffffffffffffffffffffffff168173ffffffffffffffffffffffffffffffffffffffff167f8be0079c531659141344cd1fd0a4f28419497f9722a3daafe3b4186f6b6457e060405160405180910390a35050565b600073ffffffffffffffffffffffffffffffffffffffff168273ffffffffffffffffffffffffffffffffffffffff1603610bb95760006040517fec442f05000000000000000000000000000000000000000000000000000000008152600401610bb09190611429565b60405180910390fd5b610bc560008383610da0565b5050565b600073ffffffffffffffffffffffffffffffffffffffff168473ffffffffffffffffffffffffffffffffffffffff1603610c3b5760006040517fe602df05000000000000000000000000000000000000000000000000000000008152600401610c329190611429565b60405180910390fd5b600073ffffffffffffffffffffffffffffffffffffffff168373ffffffffffffffffffffffffffffffffffffffff1603610cad5760006040517f94280d62000000000000000000000000000000000000000000000000000000008152600401610ca49190611429565b60405180910390fd5b81600160008673ffffffffffffffffffffffffffffffffffffffff1673ffffffffffffffffffffffffffffffffffffffff16815260200190815260200160002060008573ffffffffffffffffffffffffffffffffffffffff1673ffffffffffffffffffffffffffffffffffffffff168152602001908152602001600020819055508015610d9a578273ffffffffffffffffffffffffffffffffffffffff168473ffffffffffffffffffffffffffffffffffffffff167f8c5be1e5ebec7d5bd14f71427d1e84f3dd0314c0f7b2291e5b200ac8c7c3b92584604051610d9191906111a4565b60405180910390a35b50505050565b600073ffffffffffffffffffffffffffffffffffffffff168373ffffffffffffffffffffffffffffffffffffffff1603610df2578060026000828254610de69190611812565b92505081905550610ec5565b60008060008573ffffffffffffffffffffffffffffffffffffffff1673ffffffffffffffffffffffffffffffffffffffff16815260200190815260200160002054905081811015610e7e578381836040517fe450d38c000000000000000000000000000000000000000000000000000000008152600401610e75939291906117db565b60405180910390fd5b8181036000808673ffffffffffffffffffffffffffffffffffffffff1673ffffffffffffffffffffffffffffffffffffffff16815260200190815260200160002081905550505b600073ffffffffffffffffffffffffffffffffffffffff168273ffffffffffffffffffffffffffffffffffffffff1603610f0e5780600260008282540392505081905550610f5b565b806000808473ffffffffffffffffffffffffffffffffffffffff1673ffffffffffffffffffffffffffffffffffffffff168152602001908152602001600020600082825401925050819055505b8173ffffffffffffffffffffffffffffffffffffffff168373ffffffffffffffffffffffffffffffffffffffff167fddf252ad1be2c89b69c2b068fc378daa952ba7f163c4a11628f55a4df523b3ef83604051610fb891906111a4565b60405180910390a3505050565b600081519050919050565b600082825260208201905092915050565b60005b83811015610fff578082015181840152602081019050610fe4565b60008484015250505050565b6000601f19601f8301169050919050565b600061102782610fc5565b6110318185610fd0565b9350611041818560208601610fe1565b61104a8161100b565b840191505092915050565b6000602082019050818103600083015261106f818461101c565b905092915050565b6000604051905090565b600080fd5b600080fd5b600073ffffffffffffffffffffffffffffffffffffffff82169050919050565b60006110b68261108b565b9050919050565b6110c6816110ab565b81146110d157600080fd5b50565b6000813590506110e3816110bd565b92915050565b6000819050919050565b6110fc816110e9565b811461110757600080fd5b50565b600081359050611119816110f3565b92915050565b6000806040838503121561113657611135611081565b5b6000611144858286016110d4565b92505060206111558582860161110a565b9150509250929050565b60008115159050919050565b6111748161115f565b82525050565b600060208201905061118f600083018461116b565b92915050565b61119e816110e9565b82525050565b60006020820190506111b96000830184611195565b92915050565b6000806000606084860312156111d8576111d7611081565b5b60006111e6868287016110d4565b93505060206111f7868287016110d4565b92505060406112088682870161110a565b9150509250925092565b600060ff82169050919050565b61122881611212565b82525050565b6000602082019050611243600083018461121f565b92915050565b600080fd5b600080fd5b7f4e487b7100000000000000000000000000000000000000000000000000000000600052604160045260246000fd5b61128b8261100b565b810181811067ffffffffffffffff821117156112aa576112a9611253565b5b80604052505050565b60006112bd611077565b90506112c98282611282565b919050565b600067ffffffffffffffff8211156112e9576112e8611253565b5b6112f28261100b565b9050602081019050919050565b82818337600083830152505050565b600061132161131c846112ce565b6112b3565b90508281526020810184848401111561133d5761133c61124e565b5b6113488482856112ff565b509392505050565b600082601f83011261136557611364611249565b5b813561137584826020860161130e565b91505092915050565b60008060006060848603121561139757611396611081565b5b60006113a5868287016110d4565b93505060206113b68682870161110a565b925050604084013567ffffffffffffffff8111156113d7576113d6611086565b5b6113e386828701611350565b9150509250925092565b60006020828403121561140357611402611081565b5b6000611411848285016110d4565b91505092915050565b611423816110ab565b82525050565b600060208201905061143e600083018461141a565b92915050565b6000806040838503121561145b5761145a611081565b5b6000611469858286016110d4565b925050602061147a858286016110d4565b9150509250929050565b7f4e487b7100000000000000000000000000000000000000000000000000000000600052602260045260246000fd5b600060028204905060018216806114cb57607f821691505b6020821081036114de576114dd611484565b5b50919050565b7f416d6f756e74206d7573742062652067726561746572207468616e207a65726f600082015250565b600061151a602083610fd0565b9150611525826114e4565b602082019050919050565b600060208201905081810360008301526115498161150d565b9050919050565b7f496e73756666696369656e7420524d542062616c616e63650000000000000000600082015250565b6000611586601883610fd0565b915061159182611550565b602082019050919050565b600060208201905081810360008301526115b581611579565b9050919050565b60006040820190506115d16000830185611195565b81810360208301526115e3818461101c565b90509392505050565b7f4e487b7100000000000000000000000000000000000000000000000000000000600052601160045260246000fd5b60008160011c9050919050565b6000808291508390505b60018511156116725780860481111561164e5761164d6115ec565b5b600185161561165d5780820291505b808102905061166b8561161b565b9450611632565b94509492505050565b60008261168b5760019050611747565b816116995760009050611747565b81600181146116af57600281146116b9576116e8565b6001915050611747565b60ff8411156116cb576116ca6115ec565b5b8360020a9150848211156116e2576116e16115ec565b5b50611747565b5060208310610133831016604e8410600b841016171561171d5782820a905083811115611718576117176115ec565b5b611747565b61172a8484846001611628565b92509050818404811115611741576117406115ec565b5b81810290505b9392505050565b6000611759826110e9565b915061176483611212565b92506117917fffffffffffffffffffffffffffffffffffffffffffffffffffffffffffffffff848461167b565b905092915050565b60006117a4826110e9565b91506117af836110e9565b92508282026117bd816110e9565b915082820484148315176117d4576117d36115ec565b5b5092915050565b60006060820190506117f0600083018661141a565b6117fd6020830185611195565b61180a6040830184611195565b949350505050565b600061181d826110e9565b9150611828836110e9565b92508282019050808211156118405761183f6115ec565b5b9291505056fea2646970667358221220df6937fbd81baf3fc22b551b36cc3b0e3bed53ffeb1ad1a91e618ea4850ccab264736f6c634300081c0033",
  "linkReferences": {},
  "deployedLinkReferences": {}
}